:020000040000FA
:10000000200300106901000071010000730100006D
:100010007501000077010000790100000000000078
:100020000000000000000000000000007B01000054
:100030007D010000000000007F0100008101000040
:1000400083010000830100008301000083010000A0
:100050008301000083010000830100008301000090
:100060008301000083010000830100008301000080
:100070008301000083010000830100008301000070
:100080008301000083010000830100008301000060
:100090008301000083010000830100008301000050
:1000A0008301000083010000830100008301000040
:1000B0008301000083010000830100008301000030
:1000C00083010000830100008301000000F002F8BA
:1000D00000F03AF80AA090E8000C82448344AAF1A8
:1000E0000107DA4501D100F02FF8AFF2090EBAE8A6
:1000F0000F0013F0010F18BFFB1A43F0010318475C
:10010000640A0000840A0000103A24BF78C878C14D
:10011000FAD8520724BF30C830C144BF04680C600D
:10012000704700000023002400250026103A28BF55
:1001300078C1FBD8520728BF30C148BF0B60704759
:100140001FB51FBD10B510BD00F0E7FC1146FFF74D
:10015000F7FF00F040FB00F0AFF803B4FFF7F2FF49
:1001600003BC00F0B3F80000094880470948004785
:10017000FEE7FEE7FEE7FEE7FEE7FEE7FEE7FEE757
:10018000FEE7FEE704480549034A054B70470000B7
:10019000A9040000CD000000200100102003001081
:1001A0002001001010B5044600211120ABBE002C28
:1001B00000D0206010BD53EA020C00F069802DE9E8
:1001C000F04B4FF00006002B1FBFB3FA83F503FA84
:1001D00005F424FA05F65E4012BF1643B2FA82F522
:1001E00002FA05F4C5F120051EBF22FA05FC44EA17
:1001F0000C04203556EA044C4FEA144418BF641C22
:100200004FF000084FF00009904271EB030C39D316
:10021000002919BFB1FA81F701FA07F6B0FA80F7A1
:1002200000FA07F6C7F120071EBF20FA07FC46EACE
:100230000C062037B6FBF4FCA7EB0507103F07F0D0
:100240001F0BCBF120060CFA0BFB2CFA06F644BF71
:10025000B3460026202FA4BF5E464FF0000B5BEA9A
:10026000060C08BF4FF0010B19EB0B09ABFB027C2E
:1002700048EB0608C01B06FB02CC0BFB03CC71EB62
:100280000C01C1E70B46024641464846BDE8F08BEB
:1002900013B54FF000004FF00001AFF30080BDE850
:1002A0001C407047014900F0BFBB000094000010E3
:1002B00070477047704770470446AFF30080204690
:1002C000FFF74BFF00487047C0000010014918209D
:1002D000ABBEFEE7260002001F1D1F1E1F1E1F1FB4
:1002E0001E1F1E1F00000000000000000000000094
:1002F000000000000000000000000000FFFFFFFF02
:100300002DE9F04781480068C0F3016003287CD1E3
:100310007F48006810F0030006D0012833D002287F
:100320005FD003282ED100E000BF78480068C0F3FA
:10033000074000F101044FF002017648D0F8880030
:10034000C0F30E0000F10100A1FB0001724B4FF061
:10035000000CA0FB037901FB039100FB0C1122466A
:1003600063463846FFF727FF05466C480068C0B271
:1003700000F1010422464FF000032846FFF71BFF5F
:10038000674908605DE061480068C0F3074000F11C
:1003900001044FF002015F48D0F88800C0F30E005E
:1003A00000F10100A1FB00105E4A4FF0000CA1FB20
:1003B000027900FB029001FB0C012246634638469D
:1003C000FFF7F9FE054655480068C0B200F1010488
:1003D00022464FF000032846FFF7EDFE5049086023
:1003E0002FE04A480068C0F3074000F101044FF0D5
:1003F00002014848D0F88800C0F30E0000F1010067
:10040000A1FB00124FF4004000E01BE04FF000039E
:10041000A1FB007902FB009001FB03012246384654
:10042000FFF7C9FE05463D480068C0B200F101046F
:1004300022464FF000032846FFF7BDFE384908600A
:1004400000BF2FE03248006810F0030006D00128FA
:1004500010D0022819D0032823D100E000BF2F4874
:100460000068C0B200F101002B49B1FBF0F02C494B
:10047000086016E029480068C0B200F1010029496F
:10048000B1FBF0F0264908600BE024480068C0B2D8
:1004900000F101004FF40041B1FBF0F02049086089
:1004A00000BF00BFBDE8F08720201F490860194841
:1004B000D0F8A00110F0200F05D000BF1A48006846
:1004C00010F0400FFAD00320144908601748114972
:1004D000C1F8A8011648174908604FF001000C49FF
:1004E00008604FF00000A1F10401086012481349B0
:1004F00008604FF480700749C1F8C80108460068D9
:1005000020F4704040F480400860704788C00F407D
:100510000CC10F4000C00F4000093D0004C10F4056
:1005200000000010001BB700A0C10F4055515155ED
:1005300055545554ACC10F40DE872804C4C00F4049
:1005400000214FF04022116702215160FC49D16027
:10055000114688612021D163704702204FF040216D
:1005600048600120486000BF4FF04020C06B10F091
:10057000010FF9D000204FF0402148607047002063
:10058000F04908670220486040F6B730C8607047FD
:100590000221EC4A51600121516000BFE94989689C
:1005A0008142FBD30021E74A516070474FF0F06071
:1005B000E549C8614FF00060C8614000C8617047FC
:1005C00010B504460B46FFF7F1FFDF48446123B93D
:1005D0004FF00060DC49C86103E04FF00060DA4989
:1005E00088614FF08050D84988611920FFF7D0FF0B
:1005F0004FF08050D449C86110BD70B504460E4616
:1006000004F0F005ED0431462846FFF7D9FF04F069
:100610000F05ED0531462846FFF7D2FF6420FFF7AE
:10062000B7FF70BD00B5C9484068C9490840C7490F
:100630004860C548006840F0FC50C3490860FFF7B7
:10064000B5FF4FF4A070FFF7A3FF00213320FFF7A1
:10065000D4FF4FF49670FFF79BFF00213220FFF785
:10066000CCFF4FF49670FFF793FF00212820FFF78F
:10067000C4FF4FF49670FFF78BFF00210C20FFF7AB
:10068000BCFF5020FFF784FF00210620FFF7B5FFD5
:100690005020FFF77DFF00210120FFF7AEFF64200F
:1006A000FFF776FF00BD70B5054600240BE02E5D18
:1006B00001213046FFF7A1FF641C102C03D100215B
:1006C000C020FFF79AFF285D0028F0D170BD70B5FB
:1006D0008CB00020FFF766FD0B900BA8FFF7E2FD42
:1006E00006462C223146684600F06CF9029C019DBA
:1006F0000EE00A20B4FBF0F100FB11409549886040
:100700000A20B4FBF0F40846C4600A20B4FBF0F4FD
:10071000002CEED10EE00A20B5FBF0F100FB1150E9
:100720008C4908600A20B5FBF0F5084645600A20B0
:10073000B5FBF0F5002DEED10CB070BD10B5FFF794
:10074000C6FF002412E08048406940EA04407E4928
:100750004861084640697F4951F824107E4A52F8A2
:10076000211040EA011078494861641C032CEAD941
:1007700010BD0CB503200DE07649784A126811F8D7
:1007800022103031C9B2754A1268C2F103020DF865
:100790000210401EF0E76C48406B71490860084643
:1007A000006800F0F06008600846006890B1012021
:1007B0006C4908706A480068C00C694908606A485A
:1007C0000068800A6849086065480078097808432D
:1007D0006649087070475D480068654908405B4994
:1007E00008605948006840F47F60574908605748DE
:1007F000406820F0FF00554948600846006920F431
:100800007F2008610846C06820F47F10C8604E4809
:10081000006C40F470504C4908640846006A20F0AF
:10082000F0600862FFF7ABFEFFF73EFEFFF768FDE2
:10083000FFF7F8FE00218020FFF7DFFE4FF448703D
:10084000FFF7A6FEFFF7B2FE4FF44860FFF7A0FEE9
:100850004848FFF728FFB0E0FFF770FF49E0FFF7D7
:100860006DFF01204449087039E0434800780128B1
:1008700003D180024149086017E03F480078022810
:1008800003D180023D4908600FE03B48007803280F
:1008900004D14FF480503949086006E036480078AA
:1008A000042802D1C00235490860344800682E4946
:1008B00008604FF470502449C86530480068886566
:1008C000002028490870FFF766FF264800780128B5
:1008D00000D108E028480078401C274908702648C5
:1008E00000780528C1DB00BF1E480078012800D130
:1008F00000E0B4E700BF1D480078442856D01B48EC
:100900000078842852D0194801781D480268006890
:10091000401C1B4B18601B48815400200F49086085
:100920003BE019480D490968405C10490978884244
:100930002ED1164809490968405C0C49087030E01E
:10094000DF9304000080004000C0092000C0024086
:10095000FF3F00FC84000010240000105400001031
:10096000680000104D0000105C0000104E000010E8
:100970000F00F0FF740000104C0000105800001031
:10098000500000106C000010040000101400001053
:100990000A480068401C0949086008480068102897
:1009A000BFD300BF0648FFF77EFE06E0044800788C
:1009B000442801D1FFF7DDFE00BF4DE754000010D1
:1009C0004E00001010B5203AC0F00B80B1E818506E
:1009D000203AA0E81850B1E81850A0E81850BFF429
:1009E000F5AF5FEA027C24BFB1E81850A0E81850C8
:1009F00044BF18C918C0BDE810405FEA827C24BF1C
:100A000051F8043B40F8043B08BF7047D20728BFA9
:100A100031F8023B48BF11F8012B28BF20F8023BF8
:100A200048BF00F8012B704770B50C4601680020E4
:100A30004A1C34D040F2B5553C23B1FBF3F203FB22
:100A400012112160B2FBF3F103FB11221823626043
:100A5000B1FBF3F203FB1211A16046F2E0310A444C
:100A60000721B2FBF1F301FB1321B2FBF5F305FB08
:100A70001322A1619900B2F5B77F06D3521EAD10C3
:100A8000B2FBF5F3194405FB13220F4BE2616161E0
:100A900089077B440CD03B2A0AD3521C08E02C2146
:100AA000204600F013F80120E0600AE0521A401CD2
:100AB000195C9142FAD9521CC4E903204FF0FF306F
:100AC0002062204670BD000042F8FFFF4FF0000298
:100AD00000B5134694469646203922BFA0E80C5034
:100AE000A0E80C50B1F12001BFF4F7AF090728BF0F
:100AF000A0E80C5048BF0CC05DF804EB890028BF8B
:100B000040F8042B08BF704748BF20F8022B11F0B3
:100B1000804F18BF00F8012B70477546FFF7D2FBD6
:100B2000AE4605006946534620F00700854618B0DA
:100B300020B5FFF727FBBDE820404FF000064FF03F
:100B400000074FF000084FF0000B21F00701AC4602
:100B5000ACE8C009ACE8C009ACE8C009ACE8C00921
:100B60008D467047840B00000000001074000000E8
:100B700008010000F80B000074000010AC02000037
:100B800024010000C0C62D001121418112224282A1
:100B900014244484182848883031323334353637A9
:100BA00038396F49202020203F0000000600000057
:100BB0005B0000004F000000660000006D000000B8
:100BC0007D000000070000007F0000006F000000B3
:100BD0000000000000000000000000000000000015
:100BE0000000000000000000000000000000000005
:080BF0000000000000000000FD
:04000005000000CD2A
:00000001FF
